:020000041000EA
:1000000000B5324B212058609868022188439860DF
:10001000D860186158612E4B002199600221596106
:100020000121F02299502B49196001219960352056
:1000300000F044F80222904214D00621196600F024
:1000400034F8196E01211966002018661A6600F04E
:100050002CF8196E196E196E052000F02FF8012189
:100060000842F9D1002199601B49196000215960AB
:100070001A491B48016001219960EB211966A021F2
:10008000196600F012F800219960164914480160C1
:100090000121996001BC002800D000471248134993
:1000A000086003C880F30888084703B5996A0420EC
:1000B0000142FBD001200142F8D103BD02B5186610
:1000C0001866FFF7F2FF186E186E02BD00000240BE
:1000D000000000180000070000035F00212200005C
:1000E000F4000018222000A00001001008ED00E03C
:1000F00000000000000000000000000074B24E7A12
:1001000000200420F7010010C3010010C5010010F9
:10011000C1010010C1010010C1010010C101001097
:10012000C1010010C1010010C1010010C701001081
:10013000C1010010C1010010C9010010CB01001065
:10014000CD010010CD010010CD010010CD01001037
:10015000CD010010CD010010CD010010CD01001027
:10016000CD010010CD010010CD010010CD01001017
:10017000CD010010CD010010CD010010CD01001007
:10018000CD010010CD010010CD010010CD010010F7
:10019000CD010010CD010010CD010010CD010010E7
:1001A000CD010010CD010010CD010010CD010010D7
:1001B000CD010010CD010010CD010010CD010010C7
:1001C00000BE00BE00BE00BE00BE00BEEFF3058054
:1001D000103800BEF2EB8871985D0010B45D00101D
:1001E0003402001090A31AE700201F49086006C8D7
:1001F00081F3088810471D48006800282FD10DA4FE
:100200000ECC002902D000F012F8F9E71849194A7B
:10021000002000E001C19142FCD1174988471749ED
:1002200088471749884700BEFDE701C901C29A42C5
:10023000FBD37047B45D0010C00000204C0B0020C1
:1002400040680010000004200000042040680010F6
:10025000001004200010042000000000704709482E
:1002600002F0F6FE0047000008ED00E0000000D0BC
:10027000500B0020580F0020D91D00101103001052
:10028000951D00105756000006005250ABB3605346
:10029000A05C001006005250861C0302B05C0010E7
:1002A000060052505422A29DBC5C00100500525022
:1002B000DE65F46840680010F8B5C04610B5064C1D
:1002C0002378002B07D1054B002B02D0044800E017
:1002D00000BF0123237010BD500C0020000000005F
:1002E000104D0010044B10B5002B03D003490448F7
:1002F00000E000BF10BDC04600000000540C00200C
:10030000104D001010B50F210E2000F03BF810BD6D
:1003100010B5FFF7F7FF0121012000F005F80121DA
:10032000022000F001F8F6E701238340002903D002
:10033000D022120653617047D02212069361FAE769
:10034000F0B5C64600B582B080460D004F1C38009F
:1003500003F0A6FD04000026067001302A00414685
:1003600003F0BCFD00963B0022003C21044804F051
:1003700047F8200003F0A6FD02B080BCB846F0BDEF
:10038000E802002070B505000C000D490D4804F08E
:100390000BF80321280000F019F80321200000F0D9
:1003A00015F800220121280000F028F80022012180
:1003B000200000F023F813210348FFF7C1FF70BDB0
:1003C000801A0600E80200203802002010B58300E1
:1003D000084A944663441C6840226240C02414408A
:1003E0008022520113431C60C000034B9C466044B2
:1003F000416010BD04C001400040014080000B4B33
:100400009C46604400290DD00823002A0CD0042209
:100410001343026853400C221340802252011043C0
:10042000036070470023F0E70022F1E704C00140B9
:10043000034B1B6802201840431E9841C0B270470E
:1004400000C00640EFF3108072B6034B1B68002B10
:10045000FBD0BFF35F8F70472C0100D0BFF35F8FDD
:10046000024B00221A6080F3108870472C0100D0E4
:10047000F8B506000C001500FFF7E4FFE308F718D5
:10048000F15C07222240012393400B4205D1DBB2ED
:100490000B433B70FFF7E2FFF8BD2100280001F09D
:1004A00017FD0000002307E0054A9A189200BFF3E9
:1004B0005F8F0021116001331F2BF5D97047C046B3
:1004C00040000034054A1078431CDBB21370172B30
:1004D00002D9130010221A707047C0464B02002048
:1004E000074B9B68103080001950BFF35F8FBFF33C
:1004F0005F8F044B0021196082F310887047C0465B
:1005000000ED00E0240100D010B5091A081F0A4BC5
:100510009C466144094A914208D8C30706D440105A
:100520004005400D064B184380B210BD054B064AEE
:10053000A321064801F032FCFC070000FE0F00007A
:1005400000E0FFFF104D0010804F0010404D0010E4
:1005500010B5091A04394C08090B08D14905490D91
:10056000064A11430180064B2343438010BD054BCF
:10057000054AAB21054801F011FCC04600F0FFFF21
:1005800000F8FFFF9C4D0010544F0010404D00102C
:1005900001238340034A10681840431E9841C0B2AB
:1005A0007047C04600E100E0002904D0034B18600A
:1005B000034B18607047034B1860FBE780E200E0D4
:1005C00000E100E080E100E010B501238340180065
:1005D000FFF7EAFF10BD0000024B9B68103080005F
:1005E000C058704700ED00E070B504000D00EFF357
:1005F000108672B60C4B1B68002BFBD0BFF35F8FCD
:100600002000FFF7E9FF094B984201D0A84205D12D
:10061000320029002000FFF763FF70BD044B054A3C
:100620008621054801F0BAFB240100D0CD0100105D
:10063000AC4D00109C4F0010404D0010F0B5CE4660
:10064000474680B583B006000D00EFF3108872B600
:10065000564B1B68002BFBD0BFF35F8F544B9A683F
:1006600034001034A300D758524B9F4207D0AF42FA
:1006700000D198E00197504BFB1A2F2B09D9424625
:1006800039003000FFF72CFF03B0C0BCB946B046BC
:10069000F0BD3000FFF77CFF814600213000FFF7FE
:1006A00093FFBFF35F8FEFF30581002901D08C42E8
:1006B00011D10123019C9C430022A368AB4212D0BC
:1006C0000622A256002A0DDB53009B189B00220035
:1006D000394CE418F1E73621384B394AFF313948B3
:1006E00001F05CFB2200AB4256D106256557002D78
:1006F00038DB6B005B199A002F4B9B189A68A2603D
:10070000DA79E27106229A56A2719B795BB2002BCC
:100710000FDA2D48A0806B005B199B00264AD31886
:100720002A4A11789971157049463000FFF74CFF3D
:10073000A5E7201D6B005B199B001F4A9B181A1D23
:100740009B88D90A1C2907D15B055B150233590028
:100750005118FFF7D9FEDDE71D4B1E4AB12119489C
:1007600001F01CFB002912D1002A0ED0FF23937147
:10077000194B9380154A1378A371184B0E49641ACC
:10078000644163431B0D1370CEE70A4FF2E7201D4F
:100790001349FFF7DDFEC7E76A21124B084AFF3114
:1007A000084801F0FBFA034F69E7C046240100D076
:1007B00000ED00E0CD0100104C020020C04E001002
:1007C0006C4F0010404D001001BD0000550F00207F
:1007D000A84E00108C4F001001BDFFFFAAAA000018
:1007E00086020020F44E001070B5012101432E4B0B
:1007F000CB1A2F2B28D8EFF30583002B2BD0EFF348
:10080000108C72B6294A1268002AFBD0BFF35F8FA2
:10081000274A0400244D641B64416243120D54B204
:10082000244A92689B00D2588A421BD00022032A95
:1008300032D853009B189B001B49CB189B795BB2A5
:10084000A3421FD00132F2E7C7211B4B1B4A4900CC
:100850001B4801F0A3FA92211A4B184AFF3118489D
:1008600001F09CFA134A92681749D150174B1A7835
:1008700082711C70BFF35F8F0C4B00221A608CF3E7
:10088000108870BD0D005300991889006918FF2663
:100890008E710F4A8A80E9E7D1210E4B074A490041
:1008A000074801F07BFAC0464C020020240100D02A
:1008B000AAAA000000ED00E0FC4E0010384F001026
:1008C000404D0010244F0010CD010010550F0020A6
:1008D00001BDFFFF304F00100022044B02E004492D
:1008E00002C30132072AFAD97047C04600E400E08B
:1008F00080808080024B9C46614489000160704783
:100900004000003410B50400FFF7DCFD01002000BA
:10091000FFF7F0FFFF232371BFF35F8F10BD10B50A
:100920000400FFF7CFFD01002000FFF7E3FFFF23E6
:10093000237100236371BFF35F8F10BD70B5050095
:100940000C00080000F012FE0949200000F052FDE2
:10095000FFF7B8FD074B9C466044800068602C752B
:10096000D0231B061B786B75A400034BE55070BDAC
:10097000810C0010400000342C0D00200A4B1A6836
:10098000EFF3108172B61368002BFCD0BFF35F8FBA
:10099000054B1B68BFF35F8F00221A6081F310883C
:1009A00040BF002000217047400F002010B50029F3
:1009B00022D003681B7B99421ED8174B9C4661448A
:1009C000090183689C4661440C684968002A19D073
:1009D00003681B7B9A4215D883680F48844662449B
:1009E00012019A1810685368020001208B4201D846
:1009F0000ED00020C0B210BD084B094A3C21094866
:100A000001F0CCF9054B064A3C21064801F0C6F935
:100A1000A242EFD8EDE7C046FFFFFF0F6C51001078
:100A20009C5300101851001010B500291ED0037BF4
:100A300099421BD84B005B18033B0468A4466344EF
:100A4000002919D0002A1DD0914221D0002A25D09A
:100A5000047BA24222D80468500080180338201872
:100A60008170197800291FD11A7010BD104B114ADE
:100A70006821114801F092F9104B114A6F310E486C
:100A800001F08CF90F4B0E4A70210B4801F086F9EA
:100A90000D4B0B4A7121084801F080F9044B054ABF
:100AA0006821054801F07AF941701A70DDE7C04607
:100AB0009051001008540010AC5100101452001056
:100AC000E4530010205200102C52001070B50600A4
:100AD0000D001400002914D0002A14D08068736817
:100AE0009847002806D0220029003000FFF79CFF1D
:100AF000280007E02A0021003000FFF795FF2000C2
:100B000000E0100070BD0800FCE70000F0B583B005
:100B10000500009201930AAB1C780BAB1F78002CE8
:100B200026D003685A7B944207D10123002B19D1A8
:100B3000002C3BD1200003B0F0BD002C0CD01A7B60
:100B4000944209D81A6863001B19033BD3189B7899
:100B5000002BEBD00123E9E73E4B3F4A68213F4899
:100B600001F01CF93E4B3F4A67213F4801F016F95E
:100B700003689C7B002CDBD012D01A7B94420FD8E8
:100B800062001219033A19688C46624451789973CD
:100B9000002900D1D9730023937053701370C7E7F5
:100BA0002C4B2D4A68212D4801F0F8F8002C3AD042
:100BB0002B681B7B9C4236D82C4BE3181B01AA6880
:100BC00094466344009A1A60019A5A60089A9A609F
:100BD000099ADA602E68002C2BD030D0337B9C42EF
:100BE0002DD863001B19033B3268944663440022EE
:100BF0009A705A701A70717B22003000FFF766FFFE
:100C00007073844200D095E7287D009A019B00F024
:100C100039FC061E01D0002F17D00C9B002B00D1F1
:100C200088E71E7086E7124B124A3C210E4801F0FD
:100C3000B5F8114B114AA521084801F0AFF8054B52
:100C4000054A6821054801F0A9F82868210000F04C
:100C500051FEE2E79051001008540010AC51001012
:100C6000445200101454001018510010FFFFFF0FE1
:100C70006C5100109C53001014510010F8530010D8
:100C8000F0B5DE4657464E464546E0B58BB0099076
:100C9000002308938200B54BD658370052E0B44B7E
:100CA000B44A3F21B44801F079F8B44BB44A3C212E
:100CB000B44801F073F8002901D1002869D100215E
:100CC000404600F00DFEA04219D12A686B680692DA
:100CD0000793AB689846EB689A464346002B14D0BE
:100CE000002C18D03B681B7B9C4214D8631EFA680A
:100CF000D35C08931B0218433861002015E0A24B17
:100D0000A24A8E219F4801F049F8A14B9F4A9221A7
:100D10009C4801F043F8994B9E4A4121994801F0C3
:100D20003DF800239A46984600207B68BFF35F8F0A
:100D300000221A6086F310884346002B32D1002827
:100D400000D10CE100F04AFB02000B1EA7DB0020E3
:100D50000021069007917868EFF3108672B601685B
:100D60000029FCD0BFF35F8F396888464C7B002C8C
:100D7000D7D09AD0097B8C4297D8874965182D0126
:100D8000B9688C46654428686968801A99410029C9
:100D900091DD2A686B68099800F074FB00239A467D
:100DA0009846C2E7089B1B02234399465146180008
:100DB000C04705000E007A68EFF3108B72B6136817
:100DC00059424B41D9B2002BF9D1BFF35F8F002EAE
:100DD0001EDB002E46DD3B69002B47D04B456DD115
:100DE00000F0FCFA02000B1E6EDB52197341002B5F
:100DF00070DB002B72DB002104910131039102941E
:100E000051460191414600913800FFF77FFE4CE0CA
:100E10003B69002BDDD04B4514D1069A079B521B32
:100E2000B341002B14DB002B16DB002104910131B0
:100E30000391029451460191414600913800FFF719
:100E400065FE32E0554B514AA1214E4800F0A6FF05
:100E500001225242524BE6E7454B464A3F21464863
:100E600000F09CFF002E01D1002DB4D13B68002C76
:100E700050D05A7B944237D1012100294AD1DA7BE4
:100E8000002A4DD19A7B002A03D1DA7B002A5AD15D
:100E90009C73DC73002C5CD03B681B7B9C4258D855
:100EA000FA68013C135D0133135500233B617A68F6
:100EB000BFF35F8F13608BF3108843E7374B334AE0
:100EC000A421304800F06AFF294B2A4A3F212A48D2
:100ED00000F064FF01225242314B8AE7244B254A3D
:100EE0003F21254800F05AFF002C0DD01A7B944278
:100EF0000AD862001219033A18688446624492784C
:100F0000002ABAD00121B8E7264B274A6821274892
:100F100000F044FF264B274AF621244800F03EFF0C
:100F2000002A0AD0197B8A4207D851008A18033A4E
:100F300019688C4662445470A4E71A4B1A4A682117
:100F40001A4800F02BFF1C4B1A4AFB21174800F0EF
:100F500025FF0A4B0F4A41210A4800F01FFF0BB042
:100F6000F0BCBB46B246A946A046F0BD2C0D002001
:100F70002850001068530010445000106C510010AD
:100F80009C530010185100106C5200108053001038
:100F900084520010C0530010FFFFFF0F905200104A
:100FA000FFFFFF7F9051001008540010AC5100105B
:100FB000CC520010D4530010F052001010B50C4B5E
:100FC0005B68002B04D00A210A48FFF793FC10BD90
:100FD000074C2300084A1021206800F091FB0320F1
:100FE00000F0F0F903212000FFF7A8FCEBE7C04672
:100FF00094020020400F0020AD09001010B5064BF0
:101000005B68002B01D0044810BD044B044A5E21EC
:10101000044800F0C3FEC0469402002004530010B0
:10102000A853001018510010F0B5DE4657464E4642
:101030004546E0B58BB0804616001F00149B9A46CB
:10104000159B994616AB1B789B461F2302AA944614
:10105000634400221A702BE0002809D0424612682F
:10106000127B904204D8421E4146C9688A5C41E026
:10107000404B414A4121414800F090FE07984CE026
:10108000361BAF41002F07DB002F11DA3C4B3D4AE6
:101090003F213D4800F082FE012676423B4FF3E7B8
:1010A000374B384A3F21384800F078FE002F4FDB9D
:1010B00043465A68EFF3108472B6136859424B41A5
:1010C000D9B20791002BF8D1BFF35F8F1F3302AA6B
:1010D0009446634404930023039302934B46019385
:1010E0005346009332003B004046FFF70FFD031EBE
:1010F000B2D1020041464968BFF35F8F00250D6001
:1011000084F31088002B29D01F2302A98C46634446
:101110001B78002BB2D112021043002B20D05B466B
:10112000002B1DD04946D04704000D0003000B439F
:101130001DD00029A4DB00F051F906000F1EAFDB23
:1011400036196F41002FB1DA012676420F4FADE715
:101150000B4B0C4A3F210C4800F020FE012040427E
:101160000BB0F0BCBB46B246A946A046F0BD0798FE
:10117000F6E7C0466C510010C05300101851001023
:10118000285000106853001044500010FFFFFF7FEC
:10119000F8B50400002900D162E04268EFF3108541
:1011A00072B6136858424341D8B2002BF9D1BFF34D
:1011B0005F8FCBB22268567BB3421BD1012000283F
:1011C00048D0206988422BD0090AC9B2002B2ED002
:1011D0002068007B83422AD8581EE668305C88422B
:1011E0002BD000206368BFF35F8F00221A6085F365
:1011F0001088F8BD002B0DD0167BB3420AD85E00D4
:10120000F618033E1768BC466644B678002ED6D062
:101210000120D4E7134B144A6821144800F0BEFDA6
:101220002C21134B134AFF31134800F0B7FD134B29
:10123000134A4121104800F0B1FD1900100000F0E0
:1012400059FB0028CED199210E4B0A4A49000A4881
:1012500000F0A4FD23698B42C4D100232361C1E7C0
:101260000020C6E79051001008540010AC51001047
:101270002853001050530010185100106C510010EA
:10128000C05300104C53001070B584B005000C0022
:10129000EFF30583002B1ED1FFF7B0FE002302936E
:1012A0000193224B00932A002300FFF7BDFE061E88
:1012B00023DD20BFFFF7A2FE3100FFF769FF1C4BC3
:1012C0005B6A9C422DD81A4A926AAA422CD29C424E
:1012D00025D0012026E0164B5B6A994209D8144AB2
:1012E000926A824207D2994201D001201AE000207E
:1012F00018E0002016E0012014E00D4B5B6A9C42D0
:1013000009D80B4A926AAA4207D29C4201D0012016
:1013100008E0002006E0002004E0012002E00020B8
:1013200000E0002004B070BD0120FBE77D09001043
:101330000040054070B5EFF305801038EFF3108CD6
:1013400072B61A4B1B68002BFBD0BFF35F8F0122D4
:101350001300834016494B6316490B601649097800
:101360000C00C440224214D0114A546A8200134D2A
:101370005259944206D38200114C125999430E4B94
:10138000197007E00A4A031D9B00995899500022E2
:1013900000E00022BFF35F8F044B002119608CF343
:1013A0001088002A00D0904770BDC046280100D0A8
:1013B000004005403C700540560F0020440F0020BF
:1013C000A40C002010B50100024A0348FFF750F8B2
:1013D00010BDC0462C540010540F0020044B5B6A13
:1013E000034A906A1900536A9942F9D17047C0467E
:1013F0000040054070B504000D00EFF3108672B692
:101400001B4B1B68002BFBD0BFF35F8F002D1CD044
:101410002000FFF7E1F8174B83420BD019002000A2
:10142000FFF7E2F801212000FFF7CEF80123A340E7
:10143000114A1360A400114BE550BFF35F8F0C4BB2
:1014400000221A6086F3108870BDA2000B4B0021A9
:10145000D1500122A2400A490B7893430B700549F1
:101460002000FFF7EBF800212000FFF7ADF8E4E7DC
:10147000280100D03513001038600540A40C00206E
:10148000560F0020F0B5DE4600B584B0040015000C
:1014900001921E000293FFF7A1FF03958E4202D82E
:1014A0004ED185424CD9EFF3108B72B6274B1B6897
:1014B000002BFBD0BFF35F8F254A17780125A5408D
:1014C000EBB23B431370234B5D63221D92000199E5
:1014D000D150A2002049029850501B6A2B4212D1D1
:1014E0001C4B1B6C2B4208D00020BFF35F8F174BA7
:1014F00000221A608BF3108823E0184B184AC5218C
:10150000184800F04BFCFFF769FF8E4214D802D157
:10151000039B834210D80E4B1B78BB420ED00D4B61
:101520001D625D631F2004400123A3400E4A136027
:10153000074B1F701E38D8E70020D6E70120D4E7FC
:10154000012004B080BCBB46F0BDC046280100D0DD
:10155000560F002000400540440F0020505400105A
:10156000D45400107454001080E200E0EFF3108CAB
:1015700072B60B4B1B68002BFBD0BFF35F8F0123B0
:101580008340084A136208490A789A430A70BFF3F5
:101590005F8F034B00221A608CF310887047C0469F
:1015A000280100D000400540560F002010B500294A
:1015B0001ED0037B99421BD84B005B18033B046889
:1015C000A4466344002919D0002A1DD0914221D09D
:1015D000002A25D0047BA24222D80468500080183B
:1015E000033820188170197800291FD11A7010BD96
:1015F000104B114A6821114800F0D0FB104B114AE2
:101600006F310E4800F0CAFB0F4B0E4A70210B4899
:1016100000F0C4FB0D4B0B4A7121084800F0BEFBE3
:10162000044B054A6821054800F0B8FB41701A7068
:10163000DDE7C04690510010F8550010AC51001085
:1016400014520010E4550010205200102C520010CB
:1016500070B506000D001400002914D0002A14D023
:10166000806873689847002806D02200290030005F
:10167000FFF79CFF280007E02A0021003000FFF759
:1016800095FF200000E0100070BD0800FCE700009E
:1016900010B50023437301338373037BC3730123AA
:1016A000027B9A4214D9002B0CD0027B934209D8BA
:1016B0005A00D218033A01688C4662440133DBB207
:1016C0005370EDE70B4B0C4A68210C4800F066FBA9
:1016D000002A09D0924207D8016853009A18033AA9
:1016E0008A180023537010BD024B034A6821034837
:1016F00000F054FB90510010F8550010AC51001050
:1017000010B5017342608360FFF7C2FF10BD000097
:1017100070B50400081E00D170BD002934D0237BB1
:10172000994231D84B005B18033B226894466344CE
:101730005A78002AF0D02DD0237B9A422AD8530021
:101740009B18033B21688C4663445D7800215970E7
:10175000002825D0237B984222D843001B18033B46
:1017600021688C4663440021597001002000FFF776
:101770006FFF060029002000FFF7CAFF02003100BA
:101780002000FFF765FFC7E7084B094A68210948B1
:1017900000F004FB054B064A6821064800F0FEFAFB
:1017A000024B034A6821034800F0F8FA90510010F8
:1017B000F8550010AC51001070B505000C00160073
:1017C00000292FD034D0037B994231D84B005B18CD
:1017D000033B0268944663445A78002A2ED19A78D3
:1017E000002A31D11978FFF793FF0300002E0AD0A9
:1017F000EA7B002A2ED1AA7B002A03D1EA7B002AA9
:101800003BD1AC73EC73002B3DD1002C4FD02B7B24
:101810009C424CD82B6861000C19033C1C19002316
:10182000637070BD254B264A3821264800F0B6FA71
:10183000254B264A6821264800F0B0FA254B204A5D
:101840003A21204800F0AAFA234B1D4A3B211D48AB
:1018500000F0A4FA002A0AD0297B8A4207D8510056
:101860008A18033A29688C4662445470C3E7164BC1
:10187000164A6821164800F091FA184B104A422186
:10188000104800F08BFA002B0BD02A7B934208D82B
:1018900043001B18033B2A689446634400229A7055
:1018A000B3E7094B094A6821094800F077FA064B6B
:1018B000064A6821064800F071FAC046F05400104C
:1018C000D0550010F854001090510010F855001039
:1018D000AC5100104C55001074550010F05200101F
:1018E00070B504000A00457B2900FFF765FF6073AF
:1018F000280070BD70B50400002967D0437B8B427F
:101900000ED0002911D0037B99420ED84B005B18F2
:10191000033B0268D0188378002B0CD1002056E0DE
:101920000121FFF7DDFF012051E0294B294A682101
:10193000294800F033FA002B20D0227B93421DD897
:101940005A00D318033B2268D2182568EB5C8B42FF
:101950001AD0002B1BD0227B934218D85A00D318E0
:10196000033B2268D21853788B4216D0002BF0D15B
:101970001A4B1B4A6B211B4800F010FA144B154AF6
:101980006821154800F00AFA4378137007E0104BFD
:10199000104A6821104800F001FA43785370002380
:1019A0008370437001222000FFF706FF0200617B75
:1019B000814205D02000FFF74BFE6073012006E056
:1019C000094B074A7121074800F0E8F9002070BD73
:1019D00090510010F8550010AC510010304F00101D
:1019E000B8550010F854001098550010F8B5DE46B0
:1019F00057464E464546E0B505000F0092460A9A06
:101A0000934250D31A0E91461E020A9A00233000C8
:101A1000494601F0AFFB80466C006419A400304BCE
:101A20009C4664446368834200D260602B1FDBB233
:101A30009B46012B3DD9C0239B01234380221201E9
:101A40001A60AB00274A9958002907D0506901F065
:101A500053FB431C5800C0180338FDD253465A01AB
:101A600023685A40E0231A4080235B0123431A6015
:101A70005A46012A28D980239B0123438022120140
:101A80001A6043466360424600233000494601F035
:101A900071FBAD00134B58510120F0BCBB46B24660
:101AA000A946A046F8BD104B104A3321104800F05B
:101AB00075F9012FBFD1C0239B01234303221A6074
:101AC000A368DB07FCD5C9E72168794003220A40F7
:101AD0001A60A2680123BB401342FAD0CBE7C0468C
:101AE00000800040B40C002004560010785600100E
:101AF0001856001030B583B00C2000F011F9FEF735
:101B000097FC00280DD0002304E099002D4A2E48B0
:101B100088500133092BF8D92A4B2C4A5A6203B05A
:101B200030BD2B4B00229A6700F002F9294B0122AD
:101B30001A60274B5B6C012BFBD1274B03221A60E9
:101B4000234B9B6B012BFBD1013300930433234ABE
:101B50000121234800F054F805230093214A012174
:101B6000214800F04DF8214B00930022022104206F
:101B7000FFF73CFF1E4D00952B00002201210520A0
:101B8000FFF734FF104C00942300002200210720AF
:101B9000FFF72CFF00942300002200210820FFF70C
:101BA00025FF0A4B00932300002200210920FFF7A4
:101BB0001DFF00952B00002200210620FFF716FFD5
:101BC000ADE7C046B40C0020006CDC021BB700007F
:101BD000008000403CB0004030B00040002F685909
:101BE00000800240008C864700C00240001BB70006
:101BF000405973078000014BC0587047B40C002057
:101C0000F0B5C64600B504000E0017001D003748A9
:101C100001F072FA8046364BFA18364B9A4239D8A0
:101C20000100380001F068FA0200103A98235B00C6
:101C30009A4235D86B1E062B38D8069B013B062BE3
:101C400034D83F09474537D32D04069B1A03154363
:101C50002368002B36DB284B9C4244D08022520163
:101C6000264B1A60264B1A60264B9B68110099433D
:101C7000FAD12660A060231DC02292011A432123BD
:101C800013602368002BFCDAE5600823136080BC36
:101C9000B846F0BD1C4B1D4A11211D4800F07EF8CE
:101CA0001C4B1A4A19211A4800F078F81A4B174AA7
:101CB0001C21174800F072F8184B144A23211448CD
:101CC00000F06CF822683F231340B342C3D1A368ED
:101CD0001B051B0D8342BED1E368EE22D2021340E6
:101CE000AB42B8D1D3E780229201B9E7001BB7001D
:101CF00080E84BD380F8A93200C0024000E00040E9
:101D000000F0004000C0004088560010C857001086
:101D1000E85600104457001060570010AC570010F0
:101D200080239B000343014AD36270470080054033
:101D3000064BAA2212011A602F22DA60044B054AD0
:101D40001A60024B5B68002BFBDA704700400240D0
:101D50000060024000B0FA0000BEFDE703000A4A3E
:101D60001268002A08D0084A1068C318074A9A4225
:101D700006D3054A13607047034A05491160F2E72C
:101D800001204042F7E7C046280D00200000042053
:101D9000580F002010B5FFF7DFFF000010B582B02C
:101DA0000C001900002A0CD0084B002A0BD001921D
:101DB000009323000200064802F0D2F90120FFF749
:101DC000CBFF044BF1E7034AF1E7C046D4570010BC
:101DD000E4570010E057001070B52B4B2B4A1A60E7
:101DE0002B4B2C4A1A602C4B9A682A4B9343FAD1FE
:101DF0002A4C01E008CC9847294B9C42FAD3FFF7C4
:101E000079FE234B274A1A60234B9B68DB43DB0197
:101E1000FAD1254B40229A675A671A67DA66234C33
:101E200009E0234B234A87212348FFF7B7FF20000F
:101E3000FEF768FD0834214B9C4209D22368002B31
:101E4000F5D0012BEDD12000FEF769FD0834F2E753
:101E50001B4CA1681B4DC022280002F03FF8A56072
:101E6000EFF30583002B00D000BEFEF71BFBFEF74F
:101E700033FDFFF7A3F8144C01E008CC9847134B4F
:101E80009C42FAD370BDC04600E00040BFCDFBFECF
:101E900000F00040FE7F3C0000C00040380B0020F6
:101EA000480B0020FFFFFF0100F00140300B002035
:101EB00014580010A858001034580010380B002097
:101EC00000ED00E000000020480B00204C0B00203B
:101ED0000FB400B583B0084802F012F9049B002B40
:101EE00007D005A90191180002F01AF9034802F081
:101EF00007F90120FFF730FF94580010A458001094
:101F0000704710B5002802D00B684968984710BD8B
:101F10000100002007E083001B185B00501C0860D4
:101F20001078C01830380A681378303BDBB2092BC0
:101F3000F1D97047F0B5DE4657464E464546E0B506
:101F400083B093461F000C9B9A460D9C0E9B9946AE
:101F50000F9B9B0703D0B8460F00060022E00192BA
:101F6000A34688464E46B9460700B44207D2551CE0
:101F70004B4641462020B84701342A00F5E73D0092
:101F80004F465C46019B9B46B1464646B8463700E5
:101F90002E0007E0013C551C5346185D43463900AE
:101FA000B0472A00002CF5D135003E0047460F9B74
:101FB0009B0707D4100003B0F0BCBB46B246A9464D
:101FC000A046F0BDB0464E46B9462F005D46531BB5
:101FD000B342EFD2541C4B4641462020B847220062
:101FE000F5E7F0B5CE46474680B585B094469846AD
:101FF0000C9D0D9C0EAB1B789946109A119B129E5E
:10200000B7071CD4002B0CD0F7070AD54F46002F7A
:1020100002D10C37374204D0013B02E030272F5564
:102020000134944201D21F2CF8D9F70707D59C42FE
:1020300005D21F2C03D830272F550134F5E7F706BA
:1020400015D5770505D4002C03D0944224D09C42AA
:1020500022D00F9A102A2BD00F9A102A30D00F9A24
:10206000022A35D01F2C02D830222A5501341F2CC9
:1020700005D84A46002A31D02D222A55013403962C
:1020800002930194009543466246FFF753FF05B063
:10209000C0BCB946B046F0BD621E012C06D00F9FF1
:1020A000102F01D01400D4E7023CD2E71400D0E78F
:1020B000B206D1D41F2CCFD878222A550134D1E7CB
:1020C000B206CCD51F2CCAD858222A550134C9E7EC
:1020D0001F2CC7D860322A550134C3E7720703D5D5
:1020E0002B222A550134CAE73207C8D520222A55A7
:1020F0000134C4E7F0B5DE4657464E464546E0B5E6
:1021000093B081468A46089209931CAB10CB1B788A
:102110009B461E9D219B9846002C03D110234246CE
:102120009A4390468023DB0046461E4042461A42B0
:1021300012D0002C22D000260EE03033D9B2771C0A
:102140000AAB99552900200000F0D6FFAC4216D307
:102150001F2F14D83E0004002900200000F0CCFFFF
:10216000CBB2092BE9D94246920605D54121C918BF
:10217000C9B20A39C9B2E2E76121F8E7270043464C
:102180000693209B05931F9B049303955B46029344
:1021900001970AAB0093099B089A51464846FFF7FE
:1021A00020FF13B0F0BCBB46B246A946A046F0BD26
:1021B000F0B5DE4657464E464546E0B595B0089028
:1021C00009910A920B931E9E1F9C20AB1B789B4685
:1021D000229B9946239D269B9A463300234303D195
:1021E000103352469A4392468023DB0057461F40E5
:1021F00052461A4219D0330023432DD0002714E051
:102200003033DAB27B1C98460CABDA554A462B00C9
:102210003000210000F0AEFFA5421FD819D0434680
:102220001F2B1BD8474606000C004A462B003000E7
:10223000210000F09FFFD3B2092BE1D9524692064C
:1022400005D54122D218D2B20A3AD2B2DAE76122D7
:10225000F8E7B145E3D901E00023984653460693D9
:10226000259B0593249B04934B4603935B46029363
:10227000434601930CAB00930B9B0A9A099908986B
:10228000FFF7AFFE15B0F0BCBB46B246A946A0466C
:10229000F0BD0000F0B5DE4657464E464546E0B577
:1022A00091B083468A460C9298461A9C08941B9DCE
:1022B000099522002B002000290001F0E6F90028F2
:1022C00000D0E5E001225242D74B2000290001F066
:1022D000D7F9002800D0DBE001225242D34B200086
:1022E000290001F0B7F9002800D0D1E00022002336
:1022F000089E3000099D290001F0ACF9002800D0AB
:10230000DDE008980999069007918023DB001E9A6A
:102310001A400D921E9A1A4201D106231C93069868
:10232000079904000D000A000600024300D1D1E025
:10233000080D4005400DBE4CA44660440A03120B34
:10234000BC4B13431F0001F0B3F9BB4ABB4B01F078
:102350003EF9BB4ABB4B01F013F904000D0000220B
:10236000B94B3000390001F002F9B84AB84B01F01E
:102370002EF902000B002000290001F001F901F004
:10238000AFF9814601F094F904000D00B14AB24B57
:1023900001F01DF90022B14B01F0F2F801F0A0F9B3
:1023A0000600AF4AAF4B2000290001F010F90400ED
:1023B0000D00300001F07CF9AB4AAC4B01F007F99D
:1023C00002000B002000290001F0D1F804000D00EC
:1023D00002000B0001F0FBF80A900B91A44BF318DC
:1023E00000261F0522002B002000290001F0C8F85C
:1023F0000E900F9122002B0000208021C90501F0D2
:10240000B6F804000D0000229A4B0A980B9901F0CF
:10241000C0F80022984B01F0B3F802000B000A98B4
:102420000B9901F0B6F80022944B01F0A9F80200D4
:102430000B000A980B9901F0ACF802000B00200089
:10244000290001F09DF802000B000E980F9901F091
:10245000A0F80022774B01F093F832003B0001F026
:10246000B6F806000F0004000D00069A079B01F065
:1024700007F9002830D001235B429C46E14400224A
:102480007D4B3000390001F084F804000D0023E09A
:102490001E9B04931D9B03931C9B0293089A099B0C
:1024A0000092019343460C9A5146584600F0FCF8BE
:1024B00011B0F0BCBB46B246A946A046F0BD002311
:1024C000002406930794069680231B069C466544C9
:1024D00007951AE7002399464B466333C62B1ED84F
:1024E00004261E9B1B0526D52B0023430FD0644AD0
:1024F000644B0698079901F0BBF8002879D00022B8
:10250000614B0698079901F0A5F8002871D01C9B33
:102510004B4506DD4A46981A431E1C9303E00526E8
:10252000DFE700231C938023DB001E9A1A431E92D0
:102530000026002399461D9B9E4264D29F1B0223C6
:102540001E9A1A400A921E9A134202D0002E00D000
:1025500000274B46002B07D022002B000698079936
:1025600001F017F8069007910022002308980999B6
:1025700001F070F8002848D1444B1E9A1340049390
:1025800003971C9B0293069B079C00930194434670
:102590000C9A5146584600F087F8002E00D187E784
:1025A0001E9B9B063DD54525441C434602005146D3
:1025B0002800D8474B46DA179B185340052205924E
:1025C000013E0496002203920A3202924A46D00F3C
:1025D000019000934346220051465846FFF78AFD7A
:1025E0000A9B002B00D163E702005F460C9E1D9DF5
:1025F00054E01C9B002B9ED00D9B002B9BD01C9B62
:10260000013B1C9397E7002799E7069C079D220052
:10261000290080200006844661440B00069207933F
:10262000AAE76525C0E7C046FFFFEF7FFFFFEFFF8A
:1026300001FCFFFF0000F03FFB799F501344D33FA4
:10264000B3C8608B288AC63F0000F83F61436F63C0
:10265000A787D23F71A379094F930A400000E03F5A
:102660001655B5BBB16B0240EF39FAFE422EE63F7C
:10267000FF03000000002C40000024400000184030
:102680002D431CEBE2361A3F80842E41FFF7FFFFFB
:10269000541C434651462020B8472200931BAB42AE
:1026A000F6D3100004E7C046F0B5DE4657464E4666
:1026B0004546E0B595B00690079193469946209F10
:1026C0001E9A1F9B1000190000F0DFFF002831D177
:1026D00001225242BF4B1E981F9900F0BBFF0028F9
:1026E00037D101225242BC4B1E981F9900F0C8FFFF
:1026F00000283DD10022B94B1E981F9900F0C0FF61
:10270000002850D10022B64B1E981F9900F0A2FF5E
:10271000002848D1002200231E981F9900F09AFF3C
:10272000002850D100239846229B5B0500D4B6E0D8
:10273000002458E0229B0393219B029303230193DF
:10274000A84B00934B465A4607990698FFF7F2FBB1
:102750000EE1229B0393219B029304230193A24B3E
:1027600000934B465A4607990698FFF7E3FBFFE0B4
:102770000423229A1A4022990B4210D09B4B002A24
:102780000FD0042222990391219902910192009382
:102790004B465A4607990698FFF7CCFBE8E0944B66
:1027A000EDE70322EEE7229B0493219B039302971C
:1027B0001E9B1F9C009301944B465A46079906980E
:1027C000FFF768FDD4E01E9A1F9B0020002100F057
:1027D000CEFE1E901F9101239846A5E70CAB302238
:1027E0001A55013F01341F2C01D8092FF6D81E9825
:1027F0001F9900F075FF050000F05AFF02000B0062
:102800001E981F9900F0B3FEFA007A4B9B181A68C5
:102810005B680A920B9300F0DAFE0890099100F0D1
:1028200083FF060000F040FF02000B0008980999A2
:1028300000F09DFE0890099100226F4B00F020FFF0
:1028400000282ED00136300000F02EFF02000B00D1
:102850000A980B9900F004FF002801D001350026EA
:10286000002F2CD1280000F023FF02000B001E983F
:102870001F9900F07CFE06000F0000225E4B00F066
:10288000E9FE002846D100225B4B3000390000F001
:10289000F7FE00283ED1EB073CD501353AE006278C
:1028A00046E70022544B0898099900F0D3FE00280F
:1028B000D6D1002E01D0F307D2D50136D0E7AA46F3
:1028C0001F2C11D8013F0A21300000F015FC651CB7
:1028D00030310CAB19550A21300000F00DFC092EE7
:1028E0000ED906002C00EBE755461F2C0CD87B1E9A
:1028F000002F09D00CAA302111551F000134F4E734
:102900002B0055461C00F0E71F2C03D80CAB2E22E1
:102910001A5501341F2C10D80A21280000F0C4FBDE
:10292000661C30310CAB19550A21280000F0BCFBA5
:10293000051E01D03400EDE734000323229A134032
:10294000012B1CD01F2C06D84346002B32D00CABD9
:102950002D221A550134229B0393219B029301944B
:102960000CAB00934B465A4607990698FFF7E2FADC
:1029700015B0F0BCBB46B246A946A046F0BD219BAF
:10298000002B13D04346002B02D10C3313420FD03F
:10299000219B013B2193190003E00CAB30221A5517
:1029A00001348C42CED21F2CF7D9CBE72199F8E71E
:1029B0002199F6E7229B5B0704D50CAB2B221A5515
:1029C0000134C8E7229B1B07C5D50CAB20221A5542
:1029D0000134C0E7FFFFEFFFFFFFEF7F65CDCD4183
:1029E00065CDCDC1C4580010C8580010BC580010A7
:1029F000B8580010B05A00100000E03FF0B5DE46B5
:102A000057464E464546E0B593B082468B469046C3
:102A10001193002900D1EBE200275546119B18784D
:102A2000002800D1E7E2252809D07C1C43463A0063
:102A30005946A847119B013311932700EEE7013354
:102A400011930024119A11780B00203BD8B2102862
:102A500003D88300D048C3589F460B00303BDBB2FD
:102A6000092B2CD92A292FD000230A93119B1A78DD
:102A70002E2A39D000239A46119A1378683BD9B28E
:102A8000122976D88B00C549CB589F4601231C4399
:102A900001321192D6E702231C4301321192D1E791
:102AA00004231C4301321192CCE708231C4301325A
:102AB0001192C7E710231C4301321192C2E711A8FB
:102AC000FFF726FA0A90D1E71C9B1A1D1C92186882
:102AD000002804DB0A90119B01331193C6E70223FF
:102AE0001C4343420A93F6E78022D20014435A1C47
:102AF00011925A781300303BDBB2092B04D92A2AF1
:102B000007D000239A46B7E711A8FFF701FA8246DB
:102B1000B2E71C9B1A1D1C921868002804DB824631
:102B2000119B01331193A7E70020F8E780235B0096
:102B30002343511C119152786C2A01D01C0018E0DB
:102B4000C0239B001C430131119112E080232343D9
:102B5000511C11915278682A01D01C0009E0C02351
:102B60001C430131119104E080235B001C430132BE
:102B70001192119B18780300253BDAB2532A00D931
:102B80002CE29300864AD3589F4680239B001C4327
:102B900001321192EDE780235B001C430132119258
:102BA000E7E7782809D0582838D06F2838D062282D
:102BB00038D010239C430A2600E01026582833D032
:102BC000692803D0642801D00C229443630501D501
:102BD0000122944369282AD0642828D0A30500D56F
:102BE0009FE0E30500D5B8E0630600D4CAE01C9A74
:102BF000111D1C911168FF220A4005940A9B049341
:102C000053460393029600230193009243463A00F1
:102C100059462800FFF76EFA070027E01026CDE797
:102C20000826CBE70226C9E720221443C8E7A305FC
:102C300020D4E30550D4630666D51C9A111D1C915F
:102C40001168FF220A40D317D118594005940A9BF6
:102C50000493534603930296D20F01920091434688
:102C60003A0059462800FFF745FA0700119B013347
:102C70001193D3E61C9BDA1D07218A43110008310A
:102C80001C91116853689C46DB170C930D930C9AAA
:102C90000D9B100048400E90624653400F930E98D3
:102CA0000F990C9A0D9B801A99410E900F910894E0
:102CB0000A9B0793534606930496002305936346A5
:102CC000DA0F02920090019143463A0059462800DB
:102CD000FFF76EFA0700C9E71C9A111D1C911268D4
:102CE000D317D118594005940A9B04935346039374
:102CF0000296D20F0192009143463A0059462800AD
:102D0000FFF7F8F90700B1E7230605D51C9A111D56
:102D10001C910023D25E96E71C9A111D1C9112682B
:102D200091E71C9BDA1D07218A43110008311C9191
:102D300008940A9B07935346069304960023059331
:102D40000293136854680093019443463A0059462D
:102D50002800FFF72DFA070088E71C9A111D1C9127
:102D600005940A9B04935346039302960023019310
:102D70001368009343463A0059462800FFF7BAF912
:102D8000070073E723060DD51C9A111D1C911268CC
:102D90001204120C31E7C046D0580010145900102C
:102DA000605900101C9A111D1C91126825E74628D5
:102DB0001AD01C9B0733072293431A0008321C9237
:102DC00004940A9A0392524602925C681B6800932C
:102DD000019443463A0059462800FFF765FC070076
:102DE000119B0133119319E620231C43E1E7672867
:102DF00001D0472802D180231B011C43452801D064
:102E0000472801D120231C431C9B073307229343EF
:102E10001A0008321C9204940A9A039252460292B3
:102E20005C681B680093019443463A0059462800A9
:102E3000FFF730FA0700119B01331193EEE50223EF
:102E40001A002240924623421FD001241C9B1A1DC7
:102E50001C927A1C9146187843463A005946A84776
:102E60005346002B16D1119B013311934F46D5E5E4
:102E7000561C434659462020B847230032005C1CAC
:102E80009D42F5D83D001700E0E701233A002F00EE
:102E90000A9DF4E74A46A9460A9D06E0571C4346A8
:102EA00059462020C84734003A00661CA542F5D890
:102EB0004D469146D7E71C9B1A1D1C921B689946EC
:102EC0005346002B00D1013B4E4601E00136130072
:102ED0003278002A02D05A1E002BF7D14B46F21A44
:102EE00010928023DB0026001E401C4203D0524576
:102EF00001D95346109302231A0022400B92234219
:102F000005D03A0037004C46A946554620E03A0025
:102F1000109B5F46B3462E0006E0551C4346390021
:102F20002020B04723002A005C1C0A999942F4D85B
:102F300035005E46BB46109437004C46A9465546C0
:102F400006E01D000134561C43465946C84732006E
:102F50002078002804D0002FF4D06B1E002DF0D173
:102F600017004D460B9B002B03D1119B013311938E
:102F700054E50A9F109B06E0561C43465946202004
:102F8000A847230032005C1C9F42F5D81700ECE7ED
:102F900021231C431C9B1A1D1C921B680093059443
:102FA00008230493534603931023029300230193B1
:102FB00043463A0059462800FFF79CF80700119B4A
:102FC000013311932AE57C1C43463A0059462520DB
:102FD000A847119B0133119327001FE57C1C434632
:102FE0003A005946A847119B01331193270015E574
:102FF0000A4B9A4610E5AA46474502D343465A1E55
:1030000000E03A00434659460020D047380013B04C
:10301000F0BCBB46B246A946A046F0BD011F001059
:1030200000B585B0029003910121009313004A423C
:1030300002A90248FFF7E2FC05B000BD031F001023
:1030400001480421014B1847C002002071300010D4
:1030500010B5010018231B8814221088984710BD52
:1030600010B5010018231B8816221088984710BD40
:10307000F0B5C64600B507000E00002501239846AE
:1030800000E00135B5420AD2AC003C192068FFF7D8
:10309000DFFF20600028F4D100239846F1E7404686
:1030A00080BCB846F0BD0000124A936F9B0815D251
:1030B0009066D166002905D0FFE7FFE7FFE7516F73
:1030C000106F704704B580210906C21751400028CF
:1030D00000D0C84301F00CFE002104BDF0B5146E11
:1030E000556E576F166FFFF7E3FF14665566576707
:1030F0001667F0BD000000D0114A936F9B0813D2F1
:1031000010665166002905D0FFE7FFE7FFE7516F22
:10311000106F704704B5002801D00020C04301F0B3
:10312000E7FD002104BDC046F0B5146E556E576F23
:10313000166FFFF7E5FF1466556657671667F0BD13
:10314000000000D094464A4A926F9208624601D22B
:1031500028E0C046F0B5464E346E756E776F366F18
:1031600000F020F89446424A146655665767166781
:103170006246F0BD94463E4A926F9208624601D282
:1031800054E0C046F0B53A4E346E756E776F366FC8
:1031900000F04CF89446364A146655665767166731
:1031A0006246F0BD002B24DB11D000293EDA00B5C9
:1031B000C943404200D1013100F038F8C9434042D0
:1031C00000D10131DB43524200D1013300BD002A5E
:1031D000EBD1002801D1002905D00020C90FC90773
:1031E00001D1C043410800B501F07AFD002200235F
:1031F00000BD00B500290ADBDB43524200D1013398
:1032000000F014F8C943404200D1013100BDC94368
:10321000404200D10131DB43524200D1013300F082
:1032200005F8DB43524200D1013300BD002923D110
:10323000002B18D1002A0CD0BC460D4F38667A6698
:1032400000210023FFE7FFE7FFE77A6F386F67464B
:103250007047002801D00748010000B501F040FD8B
:103260000022002300BD02000B0000200021704757
:10327000000000D0FFFFFFFF002B00D0BFE0130CC9
:1032800028D1002AE7D080B4114F39667A66FFE76B
:10329000FFE730B4040C7B6F396F1B0423433B669C
:1032A0007A66FFE7FFE7FFE7C04684B27B6F3D6FBA
:1032B0001B0423433B667A66FFE7FFE7C046002313
:1032C0002C042D0C7A6F386F00196941B0BC70471F
:1032D000000000D0F0B594460025140E01D1120272
:1032E0000835140F01D112010435940F01D1920059
:1032F0000235D40F01D152000135D40B0134254FD2
:103300007C66254C3C660E0C93B2FFE7FFE7FFE7B7
:103310003C6F6643360C7703BE467343DF0B5B049A
:10332000C01AB941130C7343DB18C91ACE0866439F
:10333000360CB64493B273431F0F1B01C01AB94138
:10334000130C73431F0B1B05C01AB941860D8F0266
:103350003E436643360C092D24DB520A7243801A21
:103360007703460A6643360C16235B1BDE40DF40BC
:10337000BF1964466643821B70460435063301005C
:10338000D940A840C01900D30131A24206D200237F
:10339000F0BD0000000000D0FFFFFFFF121B013056
:1033A000F3D3F1E709277F1BFE406446A2B27243C4
:1033B000801A00D20139220C7243130C1204821AB3
:1033C00099410B007046043513370100F940A840BD
:1033D000801900D30131002B02D1A2420AD2F0BDE4
:1033E000013000D30131121BFAD2013BF8D1A242C5
:1033F00000D2F0BD013000D30131121BF7E7F0B568
:103400001C0C00D080E00CB400251C0A04D11B0267
:10341000160E3343120208351C0B04D11B01160F84
:103420003343120104359C0B04D19B00960F3343A8
:1034300092000235DC0B02D192185B4101351C0071
:10344000971864410134464F7C66464C3C660E0C2E
:10345000FFE7FFE7FFE7C0463C6F6643360C7703A4
:10346000BE4697B27743C01B00D20139C01B00D2C1
:1034700001399FB27743C91BC91B170C77437E04E0
:10348000FF0B801BB941CE086643360C0C2D33DB95
:10349000B644120B1F053A431B0B97B27743C01B70
:1034A00000D201399FB27743C91B170C77433E0402
:1034B0003F0C801BB941860D8F023E43664329278E
:1034C0007F1BFE400C3D7746AF40BF1930BCA2B217
:1034D000ABB272437343801A9941220C7243130CAE
:1034E0001204801A994102000B000137001BA94108
:1034F000F9D2781E0021F0BD0C277F1BFE407746D5
:103500007F0BAF40FF19E0E700245D1C07D0144F8C
:103510007D663966FFE7FFE7FFE7FFE73C6F95B29F
:103520009EB265436643401BB141150C1E0C6543BA
:10353000664336042F0C3E432D04401BB141994293
:1035400004D202000B0020000021F0BD01D1904206
:10355000F7D3801A994101349942F2D3F6E700007B
:10356000000000D0FFFFFFFF48404140484018B432
:103570001B4B5B68FC46019308BD04DF4338001019
:1035800018B4174B1B68FC46019308BD00DF4D388B
:1035900000109446134A926F920809D2624618B4FA
:1035A0000F4BDB68FC46019308BD0CDF053B0010A8
:1035B0000C4AF0B5146E556E576F166F6246FFF7E2
:1035C000EEFF084A1466556657671667F0BD18B4D3
:1035D000034B9B68FC46019308BD08DFA939001026
:1035E0003C0D0020000000D0FFB55040424050404C
:1035F00059404B40594000E0FFB5154F4C00640D59
:1036000003D0BC4204D10C0314D80020090D0905D5
:103610005C00640D03D0BC4204D11C030AD8002214
:103620001B0D1B0501264B4009D44B4003D58B4293
:1036300000D18242FFBD9942FCD19042FFBD0B43B5
:10364000DB1803431343F5D0C9434918FFBD0000FD
:10365000FF07000000B5FFF7CFFF804100BDC04667
:1036600000B5FFF7C9FF01D9002000BD012000BD52
:1036700000B5FFF7B9FF01D9002000BD012000BD52
:1036800000B5FFF7B1FF804100BD012040054A00B1
:10369000121804D85A00121801D8002070470120CF
:1036A00070470020704700000021002805D17047B6
:1036B000C1174840401AFAD0C90713B5064B1B681A
:1036C00098470CBC441CA2401005120B0349091B6F
:1036D00009051943114310BD3C0E00201F040000D2
:1036E00010B54C00620D8023D218DB00D21A5B05A6
:1036F0007E2A10DD9E3A13DACC17090349081943D4
:103700005242D140640001341532202A05DAD040FB
:103710000843604310BD002010BD0846604310BD43
:10372000C80FC018013810BD18B4044B5B6AFC46C2
:10373000019308BD24DFB53C001000003C0D0020C3
:1037400070B513231C78012C14D0012C14DC022C2E
:1037500002DC1F4A1F4B9A641F48FFF779FC1F4B7E
:10376000186070BD99001A481A4A885001331F2BFF
:10377000F8D9EAE70023FAE71948FFF771FC0500DA
:103780001848FFF76DFC023803789B007F2B19DD8A
:10379000802229000F4800F0A1FB022CD7D1124B48
:1037A0001A88B5231B029A4209D1104B1A88104B74
:1037B0009A4204D10F4B1A880F4B9A42C7D000206F
:1037C000FEF786FB0D4B0E4A32210E48FEF7E6FA55
:1037D000093800103C0D00204C3300003C0E002046
:1037E000534400005346000054380000D83800000D
:1037F000494600009C38000059460000005B00105C
:10380000B85B0010545B001007B56046002800D17B
:1038100000BE01880A0A0230DF2AFAD1C9B2820842
:1038200004D3028840880004104300E00068024A84
:103830005050039007BD00003C0D00200FB403BCA6
:103840000CBCF0B50124E407634000E0F0B50C0DBA
:10385000CF0F661E3605891B640503D3C94340425A
:1038600000D30131640D03D0661CF60A07D0E41BB7
:1038700000207F00791C89078912803C24031D0DDC
:10388000DF0F6E1E36059B1B6D0503D3DB435242D3
:1038900000D301336D0D03D06E1CF60A07D0ED1B6B
:1038A00000227F007B1C9B079B12803D2D032F1B5A
:1038B000661B58D4A446202E46DA20371400BC409C
:1038C0001D00BD40F24033412A4380185941CB0FBF
:1038D00005D0C943C0430022644250415141624671
:1038E0004D0D28D10D0D07D100281FD024194041BE
:1038F0004941013A0D0DF9D0640006D3013000D3DF
:103900000131002C01D140084000013A0BD4941C35
:10391000E40A04D112051144DB071944F0BDD907AC
:10392000204B194300E0D9070020F0BD0029DDD16C
:10393000002CDBD1F0BD0132C6074008CD0728437B
:103940004908002EE1D0D9E73C2E29DA203E403745
:103950001400BC4000D00124F24014431A00BB40C4
:103960001C43D317ACE7AC46202F08DA20360400FE
:10397000B4400D00B540F84039412843A5E73C2F3D
:103980000CDA203F40360400B44000D00124F84057
:1039900004430800B1400C43C117EAE710001900C6
:1039A000002494E70000F07FF0B50C0D661E36058C
:1039B000891BE60A6405640D02D0651CED0A04D07B
:1039C000002001210905803C2403A4461C0D671E2C
:1039D0003F05DB1BE70A6405640D02D0651CED0A98
:1039E00004D0002201231B05803C2403774064445B
:1039F00097B484B296B27443070C7E43150C6F43A0
:103A000080B26843361802D3012000043F18300406
:103A1000350C00197D41844688B29AB250430C0C93
:103A200062431F0C7C438EB27E43921902D301265F
:103A30003604A4191604170C3618674101BC81B26C
:103A40009AB25143040C62431B0C5C4380B258434E
:103A5000121802D30120000424181004130C40187B
:103A600063412D185E410020474106BC88B293B2E5
:103A700058430C0C6343120C544389B251435B18F6
:103A800002D301210904641819041A0C09186241AF
:103A90006D1856410020474118BCF902720D1143C0
:103AA000F0026A0D1043ED020A0D03D16D19404179
:103AB0004941013B124E9B1B7600B3420ED26D0072
:103AC00007D30130002671416646354301D14008D5
:103AD00040001B05C918E4072144F0BD0BDA01338F
:103AE00006D1013004D101314F0D01D04908F2E770
:103AF000E1070020F0BD013631050020EBE70000B2
:103B0000FF030000F0B51C0D671E3F05DB1BE70A35
:103B10006405640D02D0661CF60A04D0002201235D
:103B20001B05803C2403D0252D060026F6432E6677
:103B30001E096E66CE0FF619B44649004F0D02D02D
:103B40007E1CF60A03D000200021403F3F033E1BAD
:103B5000B600B444013F7F05C91B49082E6F0136EA
:103B600076089C02950D25437543ED137543AD13FF
:103B700001356D10F603761B0CB4CC02450D2C43B9
:103B8000A2B2B3B25A43270C7B43350C6F43A4B2A5
:103B90006C431B1902D3012424043F191C041D0C7F
:103BA000A4187D4124196D41009A91B2ACB26143D1
:103BB000170C7C432B0C5F4392B25A43A41802D3D8
:103BC00001221204BF182204230C52187B41019CCD
:103BD0006C431B19520ED9010A434401A01A81B249
:103BE000B2B2514303145A43360C734387B277433E
:103BF000D617D21900277E4136049B191704160CDC
:103C00007F185E417316ED18F3010026803375416D
:103C1000A90F06D16400690AE8055B0A184309D2B6
:103C20002FE00422944480337541A90AA8059B0A19
:103C3000184326D3404149412404009A019B0D00BA
:103C40005543641B4343E41A95B286B27543170C7F
:103C50007E43030C5F4392B25A43B61802D301224B
:103C60001204BF183204330C52197B4152429C415A
:103C7000002C02D40022013051414008CA071043F1
:103C8000490802B06246D7079210084BD218084B79
:103C90009A4203D212058918C919F0BD0020002AE2
:103CA00001DC3900F0BD01331905F5E7FD03000023
:103CB000FE070000002200B5203200F004F80800E2
:103CC00000BD000000220B150AD410B5944600F088
:103CD00031F81414013400DA0021CB17144C2047BA
:103CE0000020002170476244343A0CD40C2A07DAD1
:103CF00004009140904052422032D440214310BDF4
:103D0000D843D94310BD203207D40C4694405242C8
:103D100020321141D040204310BD0800C917203285
:103D200003D452422032104110BD1800190010BDBA
:103D3000E73C00100A0DCC0F531E1B05C91A520593
:103D400003D3C943404200D30131520D03D0531C69
:103D5000DB0A07D0121B00206400611C890789124E
:103D6000803A1203014BD21A70470000FF03000093
:103D700070B513231D782A48FFF772F90400012D4E
:103D800011D0012D09DDA31E1B789B007F2B40DD88
:103D900080222100234800F0A1F82348FFF758F9BA
:103DA000224B186070BD542201001E4800F096F8A6
:103DB0001F4B1A881F4B9A421CD1A7239B011A88BC
:103DC0001D4B9A4216D11D4B1A881D4B9A4211D198
:103DD0001C4B1A8894239B019A420BD11A4B1A88C8
:103DE0001A4B9A4206D11A4B1A681A4B9A4201D1C1
:103DF000152307E01848FEF76BF899001748094AA1
:103E0000885001331F2BF8D9144A064B1A62DA6125
:103E1000B7E7134B134A42211348FDF7BFFFC046D3
:103E200053460000400E00204C3300003C0E0020A2
:103E3000EE290000C40F0000C20D0000962B000008
:103E4000C0B50000182B0000CC2A000010B50000FF
:103E5000FC2C000051ED8764E05700106D3E00100F
:103E6000CC5B0010645C0010005C001007B560467D
:103E7000002800D100BE01880A0A0230DF2AFAD1E8
:103E8000C9B2820804D3028840880004104300E0CD
:103E90000068024A5050039007BD0000400E002009
:103EA00010B5040000F0B8FA002804D00419034B40
:103EB0009C4200D810BD0248FEF70AF8000004201A
:103EC000785C001010B500F0B1FA10BD0148042173
:103ED000014B1847D002002071300010014B5B6885
:103EE00018470000D002002010B5030008001100A0
:103EF0001B68984710BD0000F8B507000D001600BC
:103F0000437D002B02D0002400200CE00368110048
:103F1000280098472DE03B7D10E0022115483B68C2
:103F20009847601C0134B44214DA002CF3DD2B19DD
:103F3000013B1B780D3B5A425341DBB22A5D0A2AF2
:103F4000F0D1002BEED1A042E7DA211A28183B6805
:103F50009847E2E7B04203DA311A28183B689847DD
:103F6000002E06DDAD19013D2B780D3B5A42534121
:103F70003B75F8BD045D001070B505000368002BAB
:103F800016D00C4B1C6805E0290004C92000FFF77F
:103F9000B3FF2469002C09D02368002BF9D0064B0D
:103FA0001B68002BF0D0A342F3D1EDE700232B6078
:103FB00070BDC0461C0D0020240D002070B505000A
:103FC0000C000B68802B05D021684B1C2360641803
:103FD000257170BD0800FFF7CFFFF5E710B5FDF7BD
:103FE000FDF902000B1E0BDB0D48002112184B419E
:103FF000002B0BDB002B0DDB0A4800F081FE10BD0F
:10400000094B0A4A3F210A48FDF7C8FE01225242E5
:10401000084BEFE7044B054A3F210548FDF7BEFE7C
:1040200040420F00300B002028500010EC5C0010C4
:1040300044500010FFFFFF7F10B5024800F048FE1B
:1040400010BDC046300B0020F0B5CE46474680B5C7
:1040500083B006000D0090461C00FFF7BFFF8146AD
:104060006B1C05D0002C08D0194F1A4B1C6807E0B8
:10407000300000F0C9FC0500F4E7174FF5E72469AC
:10408000002C17D02368002BF9D0144B1B68002B91
:1040900001D0A342F3D12A0031002000B8474346A3
:1040A000002BECD06B46D91D0A230B700122200097
:1040B000B847E4E74B46002B07D16B1E9D41E8B2A1
:1040C00003B0C0BCB946B046F0BDFFF7B5FFF4E79A
:1040D000E93E00101C0D0020F93E0010240D0020C8
:1040E00010B5064B1C6801E098472469002C03D0EA
:1040F0006368002BF8D1F8E710BDC0461C0D002006
:1041000070B5050000F080FC0400002301220100CE
:104110002800FFF799FFFFF7E3FF200070BD0000C4
:1041200070B5A2B004000E00FFF758FF0500002391
:1041300001933300220001A90848FEF771FF040033
:1041400001A8FFF719FFFFF7CBFF002D02D12000D8
:1041500022B070BDFFF770FFF9E7C046BD3F001009
:104160000FB400B583B004A901C90191FFF7D8FFCE
:1041700003B008BC04B01847F0B5DE4657464E46BB
:104180004546E0B585B0060010001C0002930EAB5A
:104190001A7803920F9D109F33680022DA66336805
:1041A000596033680132DA66A246002398469B467E
:1041B00000242BE03279002A31D001222FE003992C
:1041C000002901D000212EE001212CE03800A84771
:1041D00003000443E4B2002B06D13268526BD206CE
:1041E00002D4002DF2D1F6E7002B09D132688021EC
:1041F00051588B4600291FD1002C2FD1C1451ED00C
:10420000002C33D101229446E0440198D0452DDAA8
:10421000029A013A91464246002ACBD000229202ED
:10422000C145CCD0002149020A43411C01910078CC
:10423000316802430A61D4E7526D01240EE0039A0B
:10424000002ADDD10AE03800A84703000443E4B2A5
:10425000002B06D13268526B920502D4002DF2D1A8
:10426000F6E7002BCCD13268126EC9E7002C09D0DA
:10427000002B15D15B46002B16D0DB0718D45B460C
:104280001B0709D5039B3371404605B0F0BCBB4604
:10429000B246A946A046F0BD02235B429846F1E72C
:1042A00001235B429846EDE702235B429846E9E72B
:1042B00002235B429846E5E7F0B5D6464F464646B0
:1042C000C0B505000C000520FDF794FC0600600851
:1042D00080192100FEF710FF070043009946814432
:1042E00005214846FEF708FF80463B1A9A46284BB0
:1042F0009C4224D8700080192649FEF7FDFE441C1C
:104300004346023BA34221D32B680022DA66296888
:104310000A680423534006221A4080235B010B43A2
:104320001A602B685246DA612B6842461A624B4685
:104330004F2B11D950214846FEF7DEFE0DE07000EC
:1043400080191549FEF7D8FE441CD9E7134B144ACF
:104350005D211448FDF722FD0120A0232A68D050DA
:104360002A6811007C31D06F44402404240C80233F
:104370005B010B431C602B680122DA6639003000B8
:10438000FEF7BAFEE0BCBA46B146A846F0BDC0464C
:104390003F420F008096980040787D01085D001034
:1043A000845D0010285D001010B5114B98421CD0A0
:1043B0001022104B1A60104B1A60104B9B681400AF
:1043C0009C43231EF9D104710268D46602686624F6
:1043D000FF3414600268D363026893638833032256
:1043E0000468E250FFF768FF10BD0822E1E7C0460D
:1043F000E002002000E0004000F0004000C000406B
:1044000030B585B008AC257800240294019400955D
:10441000FFF7B2FE05B030BD10B5034B01001868C0
:1044200000F00EF810BDC046F002002010B5034B9E
:104430000100186800F064FB10BDC046F0020020C7
:10444000F0B54E464546DE465746E0B50D000B3505
:10445000060083B0162D22D8102900D9B2E000F052
:10446000B1FA102518230220CC4FFB181A005C6803
:10447000083A944200D1B5E0032362689A431300DE
:10448000E268A168CA6091600122E31859683000AF
:104490000A435A6000F09EFA2000083095E0072396
:1044A0009D4300D58EE0A94200D98BE000F08AFA46
:1044B000FC235B009D4200D2A7E1680A00D18BE09B
:1044C000042800D97AE138239846A8098044393075
:1044D000C100B24F79184C680839A1420ED00323AD
:1044E0009C4604E0002ACBDAE468A14206D062468A
:1044F000636893435A1B0F2AF4DD40463A003C6937
:104500000832944200D178E00323616899438946D8
:104510000B00491B0F2900DD7BE17A613A6100291C
:10452000B2DA80229200914500D30FE15909DA08EE
:1045300001238B40D2007968D2190B4391687B60CC
:10454000E260A1609460CC600121821091409942A8
:1045500059D80B4205D103229043490004300B4245
:10456000FBD003239846C3009946B944CC46824603
:104570006346DC68A44507D12CE1002A00DB35E165
:10458000E468A44500D125E14246636893435A1B81
:104590000F2AF2DD01208046611905436560A0689D
:1045A000E5680837C560A86040461043F960B96007
:1045B0004860CF6030008F60E25000F00BFA2000BE
:1045C000083002E00C230020336003B0F0BCBB468F
:1045D000B246A946A046F0BD80213F234020984620
:1045E000890076E7DC680230A34200D044E73A0055
:1045F0003C690832944200D086E701217B68821032
:1046000091409942A5D90323BC6862689A439146B8
:10461000954203D8531B0F2B00DD89E023004B4448
:104620005F4A01935F4B93461B681268EB18013297
:1046300000D13DE15C4A944663441B0B1B0300938D
:104640003000009900F0CEF903008046013300D11C
:10465000FAE0019B834200D9F4E0544B00981A0021
:104660009A46126803009446514663440B600199D0
:104670001A00414500D151E15B461B68013300D16E
:1046800056E1434601995B1A9A1853461A6007236C
:10469000424641461A400192194200D112E10823D4
:1046A0009846881A424B0099804441449B1A5B1AF1
:1046B0001B051B0D0091300019009B4600F092F97C
:1046C000431C00D150E14346C01A03005B440093F1
:1046D000534652461B6801215B44136042464046E4
:1046E000BA60009A0A434260BC4200D124E14A46C3
:1046F0000F2A00D822E107200C3A8243606801406B
:10470000052011436160A118486088600F2A00D914
:1047100035E142464446526826490868984200D22C
:104720000B6025490868984200D38FE00B608DE04C
:104730000122290013431143651961603000BD60F7
:104740006B6000F047F9200008303EE75A0A042A5F
:1047500072D9142A00D9C5E011005C325B31D20055
:1047600008235B429C46BA18944463469A68032324
:104770009846944500D19EE0434651689943494587
:1047800002D992689445F7D1D3689C467B6861460C
:10479000A260E1608C60D460D6E6C04620070020AD
:1047A000280B0020A00C00200F100000700C00202F
:1047B00008100000980C00209C0C0020142852D9EE
:1047C000542800D996E06E239846280B80446F3019
:1047D000C1007EE608239B46073BDC449B46DA4447
:1047E00043465246134200D0C2E64CE00122E31891
:1047F000596830000A435A60E368A268D3609A603F
:1048000000F0E8F820000830DFE62B00E808083365
:104810002AE6012360191D43656078613861C26032
:1048200082601A004B460A4342603000E15000F0BB
:10483000D1F820000830C8E69A0911003932383121
:10484000D2008DE7BC4260D0BC68626803239A4303
:10485000531B954202D80F2B00DD69E7300000F0B2
:10486000B9F80020B1E65B23984680445C30C10073
:104870002FE608235B429C46E1444B469B68013887
:104880004B4500D098E043460342F2D17B688B430E
:104890007B604900994200D9B5E6002904D1B2E60F
:1048A000042294464900E2440B42F9D050465AE6AD
:1048B00010330093C4E68910023B8B4079680B43A8
:1048C0007B6064E7009B300043445B421B051B0D8B
:1048D00019009B4600F086F8431C00D0F3E6002345
:1048E0009B46F5E6542A2BD81A0B11006F326E3115
:1048F000D20035E7AA235B0098422BD8DD3B9846CF
:10490000E80B80447830C100E3E52C4B009A9A46CE
:104910001B689C46534662441A60ADE6090500D008
:10492000AAE60200BC684A4401310A436260F3E629
:104930005B4642461A60AAE64446EDE641608DE7D2
:10494000AA2149008A4224D8DA0B11007832773143
:10495000D20005E71A4B984224D87C239846A80C2D
:1049600080447D30C100B4E5009A019B94464246E4
:10497000083B63449B1A009300239B46A8E6210052
:104980003000083100F0BCF85346BC681B68626810
:10499000C2E60B498A420BD89A0C11007D327C3159
:1049A000D200DDE6FE217E237F209846890090E537
:1049B000FE227E219200D3E67B686AE7700C00201D
:1049C0005405000010B5024800F07CF910BDC04647
:1049D0006C0C002010B5024800F076F910BDC046FE
:1049E0006C0C0020002370B5064D040008002B60FD
:1049F000FDF7B4F9431C00D070BD2B68002BFBD031
:104A00002360F9E7200D002010B583070AD00300CA
:104A1000032102E001330B4205D01A78002AF9D1B4
:104A2000181A10BD030019680C4A0D4C8A188A43E5
:104A300022420FD15968094A04338A188A43224214
:104A400008D15968054A04338A188A432242F1D0B2
:104A500000E001331A78002AFBD1E1E7FFFEFEFEF9
:104A600080808080F8B50C000500FFF7ABFF204F79
:104A7000BB685E6803239E431E4B341B9C46644404
:104A8000240B013C113324039C4207DB0021280046
:104A9000FFF7A8FFBB689B19984204D02800FFF7D6
:104AA00099FF0020F8BD28006142FFF79BFF431CDF
:104AB0000DD00122BB68361B16435E600E4B2800EA
:104AC0001A68141B1C60FFF785FF0120EAE700212C
:104AD0002800FFF787FFBA68831A0F2BDEDD07492E
:104AE0000968401A0449086001210B435360D5E767
:104AF00020070020EF0F0000700C0020280B002082
:104B0000F0B5C64605000C0000B500294FD0FFF7F0
:104B100059FF210008394C68012622000320B243C6
:104B20008F187B688343624898468368BB426AD08B
:104B300043467B6026421ED108239C460C68844471
:104B4000091B12198C6864454FD0CB68E3609C60E8
:104B50004346FC186468344211D1BB68554C42444A
:104B6000A34200D17EE0FC68DC60A3600123134314
:104B70004B608A5006E0FC1864683442EDD016435E
:104B80004E603A6080239B009A4213D25409D308A6
:104B90000122A2404468DB00224342601818836867
:104BA000C8608B608160D9602800FFF713FF80BC6C
:104BB000B846F0BD530A042B3ED894092600393478
:104BC0003836E40004192368083C03279C4242D08D
:104BD0005868B843904202D99B689C42F8D1DC687F
:104BE000CC608B60A160D960DEE74346F81840686E
:104BF000304257D1FB68B86842441643C36098609E
:104C00004E608A50D0E713004344264206D10A681A
:104C1000891A8C689B18CA68E260946001221A4362
:104C20004A60254A816012689A42BDD8234B280009
:104C30001968FFF717FFB7E7142B07D9542B1AD8B9
:104C4000140B26006F346E36E400BBE71E005C33A5
:104C50005B36DC00B6E70122B610B240466832434C
:104C60004260BDE7D9609960CB608B60012313433C
:104C70004B608A5098E7AA246400A34205D8D40B5D
:104C8000260078347736E4009CE70D4CA34205D823
:104C9000940C26007D347C36E40093E7FE247E26C7
:104CA000A4008FE7330013434B603A607CE7C046B3
:104CB00020070020280700202C0B0020A00C00203B
:104CC000540500007047C0467047C046F8B5C0465E
:104CD00001B40248844601BC604700BFC9010020FE
:104CE00001B40248844601BC604700BF15020020A1
:104CF00001B40248844601BC604700BF1502002091
:104D000001B40248844601BC604700BF9501002001
:104D100064656C7461203E3D202D3230343820268D
:104D2000262064656C7461203C3D2032303436208E
:104D3000262620212864656C7461202620312900F4
:104D4000433A2F50726F6772616D2046696C6573CC
:104D50002F5261737062657272792050692F5069A9
:104D6000636F2053444B2076312E352E312F7069DE
:104D7000636F2D73646B2F7372632F7270325F6376
:104D80006F6D6D6F6E2F68617264776172655F69B8
:104D900072712F6972712E63000000002128646512
:104DA0006C7461203E3E203131752900637572724A
:104DB000656E74203D3D205F5F756E68616E646C4A
:104DC00065645F757365725F697271207C7C2063B6
:104DD000757272656E74203D3D2068616E646C650D
:104DE000720000006972715F68616E6465725F6372
:104DF0006861696E5F667265655F736C6F745F682A
:104E0000656164203E3D20300000000076746162E0
:104E10006C655F68616E646C6572203D3D205F5F0C
:104E2000756E68616E646C65645F757365725F69E9
:104E300072710000212828282875696E74707472B8
:104E40005F7429767461626C655F68616E646C651D
:104E50007229202D20282875696E747074725F7411
:104E6000296972715F68616E646C65725F63686105
:104E7000696E5F736C6F747329202D20312925733F
:104E8000697A656F662873747275637420697271CC
:104E90005F68616E646C65725F636861696E5F73A1
:104EA0006C6F74292900000030783163203D3D206B
:104EB000282A696E7374293E3E3131750000000066
:104EC00021657863657074696F6E207C7C206578DD
:104ED00063657074696F6E203D3D206E756D202B8B
:104EE00020565441424C455F46495253545F495203
:104EF0005100000066616C736500000069735F73A8
:104F000068617265645F6972715F7261775F686121
:104F10006E646C657228736C6F745F68616E646C2C
:104F200065722900657863657074696F6E000000B2
:104F3000666F756E640000006972715F6164645F22
:104F40007461696C5F746F5F667265655F6C6973CD
:104F500074000000696E736572745F6272616E63E3
:104F6000685F616E645F6C696E6B00006972715F8F
:104F700072656D6F76655F68616E646C6572000066
:104F80006D616B655F6272616E6368007265736FFD
:104F90006C76655F6272616E636800006972715F52
:104FA0007365745F6578636C75736976655F686156
:104FB0006E646C6572000000746F74616C000000B8
:104FC000433A2F50726F6772616D2046696C65734A
:104FD0002F5261737062657272792050692F506927
:104FE000636F2053444B2076312E352E312F70695C
:104FF000636F2D73646B2F7372632F636F6D6D6FAF
:105000006E2F7069636F5F73796E632F6D75746552
:10501000782E63006D74782D3E636F72652E737009
:10502000696E5F6C6F636B0075735F73696E636548
:105030005F626F6F74203C3D20494E5436345F4DA3
:1050400041580000433A2F50726F6772616D2046DD
:10505000696C65732F52617370626572727920504A
:10506000692F5069636F2053444B2076312E352EC3
:10507000312F7069636F2D73646B2F7372632F63AD
:105080006F6D6D6F6E2F7069636F5F626173652FF7
:10509000696E636C7564652F7069636F2F747970C6
:1050A00065732E68000000006C6F636B5F69735F4F
:1050B0006F776E65725F69645F76616C6964286D95
:1050C00074782D3E6F776E65722900006D74782DAF
:1050D0003E656E7465725F636F756E7400000000EC
:1050E0006D757465785F6578697400006D757465B9
:1050F000785F656E7465725F626C6F636B5F756E0F
:1051000074696C0072742D3E616C61726D5F6964CC
:10511000203D3D2069640000433A2F50726F677252
:10512000616D2046696C65732F52617370626572A0
:1051300072792050692F5069636F2053444B207659
:10514000312E352E312F7069636F2D73646B2F7381
:1051500072632F636F6D6D6F6E2F7069636F5F7415
:10516000696D652F74696D652E6300006964202682
:1051700026206964203C3D20706F6F6C2D3E686571
:1051800061702D3E6D61785F6E6F64657300000025
:105190006964202626206964203C3D206865617092
:1051A0002D3E6D61785F6E6F64657300433A2F50DA
:1051B000726F6772616D2046696C65732F526173FF
:1051C0007062657272792050692F5069636F205345
:1051D000444B2076312E352E312F7069636F2D733D
:1051E000646B2F7372632F636F6D6D6F6E2F7069B9
:1051F000636F5F7574696C2F696E636C7564652F7E
:105200007069636F2F7574696C2F70686561702E9B
:1052100068000000706172656E745F696400000070
:105220006368696C645F69640000000070617265A6
:105230006E745F696420213D206368696C645F69F6
:10524000640000002170685F636F6E7461696E7343
:105250005F6E6F646528706F6F6C2D3E686561705E
:105260002C2072657573655F6964290072656D6FC6
:105270007665645F6964203D3D206E6578745F6982
:105280006400000063616C6C6261636B000000008D
:10529000706F6F6C2D3E616C61726D5F696E5F70D7
:1052A000726F6772657373203D3D206D616B655F42
:1052B0007075626C69635F69642869645F686967B7
:1052C000682C206E6578745F696429006964202603
:1052D00026202170685F636F6E7461696E735F6E04
:1052E0006F646528686561702C206964290000007E
:1052F00021686561702D3E667265655F7461696CD9
:105300005F69640064656661756C745F616C61728D
:105310006D5F706F6F6C5F696E697469616C697ADB
:105320006564282900000000616C61726D5F69642A
:1053300020213D20706F6F6C2D3E616C61726D5F3E
:10534000696E5F70726F67726573730072630000DD
:10535000616C61726D5F706F6F6C5F63616E6365CE
:105360006C5F616C61726D007570646174655F750E
:10537000735F73696E63655F626F6F740000000036
:10538000616C61726D5F706F6F6C5F616C61726D8B
:105390005F63616C6C6261636B0000006765745FE2
:1053A000656E747279000000616C61726D5F706F80
:1053B0006F6C5F6765745F64656661756C7400002F
:1053C0006765745F656E7472795F69645F68696749
:1053D0006800000070685F667265655F6E6F646587
:1053E0000000000070685F6164645F6368696C64FA
:1053F0005F6E6F646500000070685F696E73657250
:10540000745F6E6F6465000070685F6765745F6EDF
:105410006F6465006164645F616C61726D5F756E7D
:105420006465725F6C6F636B0000000048617264BA
:105430007761726520616C61726D20256420616CFA
:10544000726561647920636C61696D656400000058
:1054500074696D65725F68772D3E696E747320267E
:10546000203175203C3C20616C61726D5F6E756D02
:1054700000000000433A2F50726F6772616D204642
:10548000696C65732F526173706265727279205016
:10549000692F5069636F2053444B2076312E352E8F
:1054A000312F7069636F2D73646B2F7372632F726A
:1054B00070325F636F6D6D6F6E2F686172647761BC
:1054C00072655F74696D65722F74696D65722E63A4
:1054D0000000000068617264776172655F616C61F1
:1054E000726D5F7365745F7461726765740000004C
:1054F000726F6F745F696400433A2F50726F677206
:10550000616D2046696C65732F52617370626572BC
:1055100072792050692F5069636F2053444B207675
:10552000312E352E312F7069636F2D73646B2F739D
:1055300072632F636F6D6D6F6E2F7069636F5F7530
:1055400074696C2F70686561702E63002170685FEC
:105550006765745F6E6F646528686561702C207282
:105560006F6F745F6964292D3E7369626C696E6741
:10557000000000002170685F6765745F6E6F64658E
:1055800028686561702C20726F6F745F6964292DC3
:105590003E706172656E74006E65775F7375625FF1
:1055A0007472656520213D20686561702D3E726FC3
:1055B0006F745F696400000070685F72656D6F767C
:1055C000655F616E645F667265655F6E6F646500DE
:1055D00070685F72656D6F76655F616E795F686533
:1055E0006164000070685F6164645F6368696C6433
:1055F0005F6E6F646500000070685F6765745F6E62
:105600006F6465007372635F66726571203E3D2052
:105610006672657100000000433A2F50726F677226
:10562000616D2046696C65732F526173706265729B
:1056300072792050692F5069636F2053444B207654
:10564000312E352E312F7069636F2D73646B2F737C
:1056500072632F7270325F636F6D6D6F6E2F686152
:105660007264776172655F636C6F636B732F636CD9
:105670006F636B732E630000636C6F636B5F636FAC
:105680006E6669677572650076636F5F66726571D5
:10569000203E3D20285049434F5F504C4C5F5643BD
:1056A0004F5F4D494E5F465245515F4B485A202A45
:1056B000204B485A292026262076636F5F66726544
:1056C00071203C3D20285049434F5F504C4C5F5661
:1056D000434F5F4D41585F465245515F4B485A20FA
:1056E0002A204B485A290000433A2F50726F6772A4
:1056F000616D2046696C65732F52617370626572CB
:1057000072792050692F5069636F2053444B207683
:10571000312E352E312F7069636F2D73646B2F73AB
:1057200072632F7270325F636F6D6D6F6E2F686181
:105730007264776172655F706C6C2F706C6C2E6335
:10574000000000006662646976203E3D203136200C
:105750002626206662646976203C3D203332300084
:1057600028706F73745F64697631203E3D2031206C
:10577000262620706F73745F64697631203C3D206B
:1057800037292026262028706F73745F646976326B
:10579000203E3D203120262620706F73745F64699F
:1057A0007632203C3D203729000000007265665F9C
:1057B00066726571203C3D202876636F5F66726576
:1057C00071202F2031362900706C6C5F696E69740E
:1057D000000000002C2066756E6374696F6E3A20BD
:1057E00000000000617373657274696F6E2022257A
:1057F0007322206661696C65643A2066696C652075
:10580000222573222C206C696E6520256425732562
:10581000730A000031203D3D202875696E74707454
:10582000725F74296C2D3E7370696E5F6C6F636B71
:1058300000000000433A2F50726F6772616D20467E
:10584000696C65732F526173706265727279205052
:10585000692F5069636F2053444B2076312E352ECB
:10586000312F7069636F2D73646B2F7372632F72A6
:1058700070325F636F6D6D6F6E2F7069636F5F72F3
:10588000756E74696D652F72756E74696D652E63C2
:10589000000000000A2A2A2A2050414E4943202AAB
:1058A0002A2A0A000A00000072756E74696D655F2D
:1058B000696E697400000000666E6900666E692B8F
:1058C000000000006E616E00666E692D0000000031
:1058D000AA2A00105A2A00105A2A0010B42A0010CE
:1058E0005A2A00105A2A00105A2A00105A2A001068
:1058F0005A2A00105A2A00105A2A0010A02A001012
:105900005A2A0010962A00105A2A00105A2A00100B
:105910008C2A00104C2B0010722B00108A2B0010C8
:10592000722B00102C2B0010722B0010722B001009
:10593000722B0010722B0010722B0010722B0010B3
:10594000722B0010682B0010722B0010722B0010AD
:10595000722B0010722B0010722B0010962B00106F
:10596000C62F0010DC2F0010DC2F0010DC2F0010E1
:10597000DC2F0010DC2F0010DC2F0010DC2F0010BB
:10598000DC2F0010DC2F0010DC2F0010DC2F0010AB
:10599000DC2F0010DC2F0010DC2F0010DC2F00109B
:1059A000DC2F0010DC2F0010DC2F0010DC2F00108B
:1059B000DC2F0010DC2F0010DC2F0010DC2F00107B
:1059C000DC2F0010DC2F0010DC2F0010DC2F00106B
:1059D000DC2F0010DC2F0010DC2F0010DC2F00105B
:1059E000EE2D0010AE2D0010EE2D0010DC2F00105B
:1059F000DC2F0010DC2F0010DC2F0010DC2F00103B
:105A0000DC2F0010DC2F0010DC2F0010DC2F00102A
:105A1000DC2F0010DC2F0010DC2F0010DC2F00101A
:105A2000DC2F0010DC2F0010DC2F0010A22B001048
:105A3000DC2F0010DC2F0010DC2F0010DC2F0010FA
:105A4000DC2F0010DC2F0010DC2F0010DC2F0010EA
:105A5000DC2F0010A22B00103E2E0010A22B0010F5
:105A6000EE2D0010AE2D0010EE2D0010DC2F0010DA
:105A7000A22B0010DC2F0010DC2F0010DC2F0010F8
:105A8000DC2F0010DC2F0010A22B0010902F001034
:105A9000DC2F0010DC2F0010B62E0010DC2F0010C1
:105AA000A22B0010DC2F0010DC2F0010A22B001006
:105AB000000000000000F03F000000000000244053
:105AC00000000000000059400000000000408F402E
:105AD000000000000088C34000000000006AF84099
